:020000043400C6
:1004000000002034A1C90034AD0F0034AF0F003418
:10041000B10F0034B30F0034B50F0034B70F003400
:10042000000000000000000000000000B90F0034D0
:10043000BB0F003400000000BD0F0034BF0F0034BC
:10044000FDC9003400000000FDC90034FDC90034BE
:10045000FDC90034FDC90034FDC90034FDC90034B4
:10046000FDC9003400000000FDC90034FDC900349E
:10047000FDC90034FDC90034FDC90034000000008E
:10048000FDC9003400000000FDC90034FDC900347E
:10049000FDC90034FDC90034FDC90034FDC9003474
:1004A000FDC90034FDC90034FDC90034FDC9003464
:1004B000FDC90034FDC90034FDC90034FDC9003454
:1004C000FDC90034FDC90034FDC90034FDC9003444
:1004D000FDC90034FDC90034FDC90034FDC9003434
:1004E000FDC9003400000000FDC90034FDC900341E
:1004F000FDC90034FDC90034FDC90034FDC9003414
:10050000FDC90034000000000000000000000000F1
:10051000FDC90034FDC90034FDC90034FDC90034F3
:10052000FDC90034FDC90034FDC90034FDC90034E3
:10053000FDC90034FDC90034FDC90034FDC90034D3
:10054000FDC90034FDC90034FDC90034FDC90034C3
:0C07400000000000FDC90034FDC90034B9
:1007500081F0004102E000BF83F0004330B54FEA72
:1007600041044FEA430594EA050F08BF90EA020FDF
:100770001FBF54EA000C55EA020C7FEA645C7FEA72
:10078000655C00F0E2804FEA5454D4EB5555B8BF95
:100790006D420CDD2C4480EA020281EA030382EA06
:1007A000000083EA010180EA020281EA0303362D98
:1007B00088BF30BD11F0004F4FEA01314FF4801C6B
:1007C0004CEA113102D0404261EB410113F0004F7D
:1007D0004FEA03334CEA133302D0524263EB430334
:1007E00094EA050F00F0A780A4F10104D5F1200ED2
:1007F0000DDB02FA0EFC22FA05F2801841F100012D
:1008000003FA0EF2801843FA05F359410EE0A5F100
:1008100020050EF1200E012A03FA0EFC28BF4CF031
:10082000020C43FA05F3C01851EBE37101F00045E7
:1008300007D54FF0000EDCF1000C7EEB00006EEBF4
:100840000101B1F5801F1BD3B1F5001F0CD349087E
:100850005FEA30004FEA3C0C04F101044FEA4452D5
:1008600012F5800F80F09A80BCF1004F08BF5FEA5C
:10087000500C50F1000041EB045141EA050130BD3C
:100880005FEA4C0C404141EB0101013C28BFB1F54E
:10089000801FE9D291F0000F04BF01460020B1FA99
:1008A00081F308BF2033A3F10B03B3F120020CDA6C
:1008B0000C3208DD02F1140CC2F10C0201FA0CF04A
:1008C00021FA02F10CE002F11402D8BFC2F1200CAF
:1008D00001FA02F120FA0CFCDCBF41EA0C01904065
:1008E000E41AA2BF01EB0451294330BD6FEA0404AE
:1008F0001F3C1CDA0C340EDC04F11404C4F1200299
:1009000020FA04F001FA02F340EA030021FA04F3AA
:1009100045EA030130BDC4F10C04C4F1200220FA01
:1009200002F001FA04F340EA0300294630BD21FA3F
:1009300004F0294630BD94F0000F83F4801306BF05
:1009400081F480110134013D4EE77FEA645C18BFF9
:100950007FEA655C29D094EA050F08BF90EA020F90
:1009600005D054EA000C04BF1946104630BD91EA88
:10097000030F1EBF0021002030BD5FEA545C05D18B
:100980004000494128BF41F0004130BD14F58004CA
:100990003CBF01F5801130BD01F0004545F0FE413E
:1009A00041F470014FF0000030BD7FEA645C1ABF73
:1009B000194610467FEA655C1CBF0B46024650EAAA
:1009C000013406BF52EA033591EA030F41F40021D6
:1009D00030BD00BF90F0000F04BF0021704730B55C
:1009E0004FF4806404F132044FF000054FF0000131
:1009F00050E700BF90F0000F04BF0021704730B5F2
:100A00004FF4806404F1320410F0004548BF4042C6
:100A10004FF000013EE700BF42004FEAE2014FEA1B
:100A200031014FEA02701FBF12F07F4393F07F4FF6
:100A300081F06051704732F07F4208BF704793F0F9
:100A40007F4F04BF41F40021704730B54FF460740C
:100A500001F0004521F000411CE700BF50EA01020F
:100A600008BF704730B54FF000050AE050EA0102B8
:100A700008BF704730B511F0004502D5404261EB28
:100A800041014FF4806404F132045FEA915C3FF469
:100A9000D8AE4FF003025FEADC0C18BF03325FEA06
:100AA000DC0C18BF033202EBDC02C2F1200300FAB7
:100AB00003FC20FA02F001FA03FE40EA0E0021FADC
:100AC00002F11444BDE600BF7BB972B90029BEBF74
:100AD00000204FF0004106E008BF00281CBF6FF067
:100AE00000414FF0FF3000F057B8ADF1080C6DE950
:100AF00004CE002909DB002B1ADB0DF011FDDDF817
:100B000004E0DDE9022304B07047404261EB41019B
:100B1000002B1BDB0DF004FDDDF804E0DDE9022312
:100B200004B0404261EB4101524263EB4303704722
:100B3000524263EB43030DF0F3FCDDF804E0DDE922
:100B4000022304B0404261EB41017047524263EB23
:100B500043030DF0E5FCDDF804E0DDE9022304B019
:100B6000524263EB4303704753B94AB9002908BFA7
:100B700000281CBF4FF0FF314FF0FF3000F00CB8E1
:100B8000ADF1080C6DE904CE0DF0CAFCDDF804E00F
:100B9000DDE9022304B07047704700BF10B5054C73
:100BA000237833B9044B13B10448AFF30080012319
:100BB000237010BD7801083400000000DCE7003429
:100BC00008B5034B1BB103490348AFF3008008BDD0
:100BD000000000007C010834DCE7003486B0134BD1
:100BE0001022C3F85C2AD3F85C220592059A0422ED
:100BF000C3F85C2AD3F85C220492049A0822C3F852
:100C00005C2AD3F85C220392039A2022C3F85C2A60
:100C1000D3F85C220292029A0122C3F85C2AD3F82C
:100C20005C320193019B06B0704700BF0080025602
:100C3000F0B585B04B4B4FF40077C3F8587AD3F832
:100C400058320193019B02AC0023029303930226C6
:100C50000296012503952146092007F037F90295F0
:100C60002146062007F032F93F4C40F20132394666
:100C7000204605F03FFD40F201324FF480612046EE
:100C800005F038FD40F201324FF40061204605F0D6
:100C900031FD04F5806440F201322946204605F01A
:100CA00029FD40F201320821204605F023FD40F2E3
:100CB00001324021204605F01DFD40F20132802125
:100CC000204605F017FD40F201324FF480512046D6
:100CD00005F010FD04F5806440F201322021204629
:100CE00005F008FD40F201324021204605F002FDEA
:100CF00004F5806440F201322021204605F0FAFC20
:100D000040F201328021204605F0F4FC04F58064B5
:100D100040F201320821204605F0ECFC40F201329D
:100D20001021204605F0E6FC40F201324FF48071BC
:100D3000204605F0DFFC40F201324FF4806120468E
:100D400005F0D8FC04F5806440F2013231462046BB
:100D500005F0D0FC40F201322021204605F0CAFC0B
:100D600005B0F0BD008002560000025610B5E4B098
:100D70004FF4C872002168460CF06EF81022002370
:100D8000CDE900234FF4001332934FF080532293A8
:100D900003232393684601F073F808B164B010BDD3
:100DA000684608220023CDE900230023249328234A
:100DB000259301F065F8F1E772B6FEE708B504483F
:100DC000044B036007F0E5F800B908BDFFF7F4FF36
:100DD0005802083400FC0D5808B51548154B03603F
:100DE000154B436000238360C36003610C224261A2
:100DF0008361036243628362436605F06EFF70B9EC
:100E000001460B4807F021F958B90146084807F098
:100E100041F940B9064807F0F9F830B908BDFFF7C5
:100E2000CBFFFFF7C9FFFFF7C7FFFFF7C5FF00BF05
:100E3000C4010834000C00562433030008B51048E0
:100E4000104B036007F05EF890B90F480F4B03603A
:100E500007F058F870B90E480E4B036007F052F8CF
:100E600050B90D480D4B036007F04CF830B908BD80
:100E7000FFF7A2FFFFF7A0FFFFF79EFFFFF79CFF22
:100E8000B801083400310252AC01083480310252FA
:100E9000A001083400320252940108348032025218
:100EA00008B500F059FEFFF799FEFFF787FFFFF73F
:100EB00093FFFFF7C3FFFFF7BBFE11494FF4E13388
:100EC0000B600020486008814881888100F01AFB8F
:100ED00008B1FFF771FF0B480BF0DEFE00F04CF895
:100EE00008B1FFF769FF022000F0CAFA05480BF0CD
:100EF000D3FE012000F0C4FAC82000F051FEF5E74F
:100F00006402083420EA003410B58CB001AC2C2205
:100F1000002120460BF0A0FF6423019302930523D8
:100F2000029302230493012000906A46214607F0B1
:100F300089FFC0B20CB010BD10B58CB001AC2C2232
:100F4000002120460BF088FF6423019302930120C7
:100F50000290022304936A46214607F073FF10F0C3
:100F6000FF0007D1049B642202FB03F3009A934223
:100F700000D001200CB010BD00B589B064230493EB
:100F800005931E2306930123079303238DF8043052
:100F90000023029301A904A807F0D2FFFFF7CCFFBA
:100FA00008B109B000BDFFF7AFFFFAE7FEE7FEE7C3
:100FB000FEE7FEE7FEE7FEE770477047704708B5BB
:100FC00000F0DCFD08BD08B505F0B2FB05F0B8FB8C
:100FD00005F0BEFB05F0C4FB08BD00000268084B2D
:100FE0009A4200D0704782B0064B4FF08042C3F85F
:100FF000602AD3F860320193019B02B0704700BFB2
:1010000000FC0D580080025610B5ECB004460021DB
:101010006791689169916A916B914FF4C87202A8C7
:101020000BF01AFF2268184B9A4201D06CB010BD29
:101030004FF400020023CDE9022302A800F020FFB4
:10104000F0B9124B0822C3F8742AD3F87412019134
:10105000019A0122C3F85C2AD3F85C226B46009205
:101060001B684FF4606367930223689300236993BE
:101070006A9303236B9367A9054805F045F9D5E703
:10108000FFF79AFEDDE700BF000C00560080025615
:101090000000025682B0054B4FF48052C3F8542A28
:1010A000D3F854320193019B02B07047008002567E
:1010B000C0B26DED81CF21B150B1012801D1064AF6
:1010C00011609FEC100A9FE80F90FDEC81CF7447F0
:1010D000024A1160F5E700BF740208347802083450
:1010E0000F4AD2F88C3043F44063C2F88C3002F5DA
:1010F0000072536B23F0E05343F080535363094B6A
:101100000022C3F88022C3F88422C3F88822C3F8DF
:101110008C22C3F89022C3F89422C3F89822704717
:1011200000ED00E000E100E008B5FFF7D9FF114A4B
:10113000114B9360114B0121C3F8781AD3F8780250
:10114000D2F808C00E48C0F810C0006903F58053FB
:10115000C3F87812D2F8883043F47003C2F88830AC
:1011600002F50032D2F8883043F47003C2F88830B8
:1011700008BD00BF00ED00E000040034008002560E
:1011800000800056874B1B6A03F44013B3F5001F21
:1011900000F004810CD8002B49D0B3F5801F44D156
:1011A000804B5B6C13F4007F40F0FA807E4B44E090
:1011B000B3F5401F39D130B57A4BD3F8C43003F0C2
:1011C000405EBEF1805F3BD0BEF1005F51D0BEF10A
:1011D000000F67D1734BD3F8802002F0E04312F088
:1011E000006C78D1C2F3055EC2F30B226D49D1F8D1
:1011F000840020F07F40D1F88810C1F3C2642546F6
:10120000C1F30261B3F1005F00F0C2807CD8002B13
:1012100000F0B680B3F1805F74D1624B5B6C13F465
:10122000007F40F0B980604B72E0002305E05D4B29
:101230009A6CC2F3C1125D4BD3405D4A1360704794
:10124000584BD3F8902002F0E04312F0006C47D1E5
:10125000C2F3055EC2F30B225249D1F8940020F08C
:101260007F40D1F89810C1F3C2642546C1F30261F2
:10127000C8E74C4BD3F8A02002F0E04312F0006C1A
:1012800034D1C2F3055EC2F30B224649D1F8A40063
:1012900020F07F40D1F8A810C1F3C2642546C1F305
:1012A0000261AFE73F4BD3F8B02002F0E04312F009
:1012B000006C21D1C2F3055EC2F30B223949D1F88B
:1012C000B40020F07F40D1F8B810C1F3C2642546C5
:1012D000C1F3026196E7714675467046724691E722
:1012E00000210D4608460A468E468BE700210D4632
:1012F00008460A468E4685E700210D4608460A46FE
:101300008E467FE7002303E0B3F1405F42D1294BD3
:10131000BCF1000F29D107EE903AF8EE677A07EE9C
:10132000102AB8EE477A06EE900AF8EE666A9FED4C
:10133000226A66EE866A37EE267A67EE877A07EECD
:1013400010EAB8EE477AC7EE876A07EE905AB8EE11
:10135000677A07EE901AF8EE677A27EE277AC6EEDC
:10136000877AFCEEE77A17EE903A0E4AD2F8C4205C
:10137000C2F307420132B3FBF2F30D4A136030BDF2
:10138000084B9B6CC3F3C113084C24FA03F3BFE76B
:101390000A4BBDE70023BBE7094BB9E7074B4CE716
:1013A000074B4AE70080025600093D000090D00339
:1013B000000008340080BB000000803300366E015E
:1013C0000024F4006DED81CF00B5FFF7DBFE054B87
:1013D00018685DF804EB9FEC100A9FE80E90FDEC96
:1013E00081CF74470000083410B590B000230993F2
:1013F0000A93204A099207930893079206932022A2
:10140000ADF8182005934023ADF814300723ADF84C
:101410001030ADF80C300268174B9A4201D010B072
:1014200010BD164B1022C3F85C2AD3F85C1202914F
:101430000299C3F85C2AD3F85C1201910199C3F8B0
:101440006C2AD3F86C320093009B20230B93022369
:101450000C930E9301230D9307240F940BA90548B9
:1014600004F052FF40230B930F940BA9014804F0A2
:101470004BFFD4E7001002560010005200800256C5
:1014800008B5054B33F81010044B53F8200005F055
:1014900028F9002008BD00BF94ED003488ED003429
:1014A00000B583B00190084B93F800C04FF47A73F5
:1014B000012201A94FF0940E04480EFB0C0005F028
:1014C00040FB019803B000BD7C0208348002083460
:1014D00008B50B4A126802600A6842600C22426139
:1014E0004A8902614A6882600A89C2608A89826187
:1014F0004FF40042C2610022426205F0EEFB08BDDB
:1015000004000834D1B170B504460E460D4B53F8B3
:1015100020100D4A942300FB03F3D518D150284620
:10152000FFF762FF0CB1002070BD31462846FFF77F
:10153000CFFF0028F8D06FF00300F5E76FF001004F
:10154000704700BF04000834800208342DE9F04FD2
:10155000324B03EB5003B3FBF0F0314B2C2202FB78
:1015600001335A6AD96802EB010CACF1320C996A6A
:10157000CA1C00FB12CC1A691F6AA2EB070EAEF55B
:10158000827E043101FB10EE5B691F44BCF1000F49
:1015900006DDBEF1000F06DD00254FF0100837E034
:1015A0004FF0000CF5E74FF0000EF5E701320F2A7F
:1015B00020D802FB01F300FB03F39C45F6D89E45BF
:1015C000F4D3A845F2D0DFF85C80D8F80030DFF81B
:1015D00058A003EB830B0AEB8B094AF82B50C9F890
:1015E0000440C9F808200133C8F800307F2B13D815
:1015F000A846DBE734460F2C09D8661C691C04FB9F
:10160000011300FB03F39F42F4D80022CFE701351A
:101610000F2D01D80024EEE7BDE8F08F00CA9A3BF9
:101620009CED0034FC030834000408342DE9F04F2D
:1016300089B00D46474A02EB5001B1FBF0F946482C
:101640002C2305FB03F3C118C35802EB5300B0FB76
:10165000F3F403948B6A09FB03F34868B2FBF0FBD5
:101660008968B2FBF1F80294002204924FF0FF3235
:101670000592CA4658E0CA1A21E03046FF282DD804
:10168000461C00FB04424A4472440CEB02033249FC
:101690002C2707FB05110F6A3B44496A0B44984508
:1016A000EBD89B45E9D32C492C2707FB0511C969C9
:1016B0009142E2D89245E0D203995A1ADBD4029BB8
:1016C0009A42DAD2049F07EB8701244B03EB810394
:1016D00001991961D86002920597CEE7069B079998
:1016E0000193019BFF2B1BD801F1320E019A531C71
:1016F00002FB044C4FEA4A090CEB4A0CF444164A2C
:101700002C2000FB052292696245E9D2ACF132023D
:10171000521ABAEB920FE3D2002006930791ADE77D
:101720000B46049A013204920D4A126804998A42C7
:101730000BD9049A02EB8202084951F8224004FBBB
:101740000AA4002201921946CBE7059809B0BDE82A
:10175000F08F00BF00CA9A3B9CED003400040834AF
:10176000FC03083438B5054610B1002936D10D46C2
:10177000284638BD0134022C32D81B4B2C2202FBE8
:1017800004335B688B42F5D8174B02FB04339B682C
:101790008B42EFD321462846FFF7D8FE2146284644
:1017A000FFF744FF7F281BD8104A00EB800302EBB1
:1017B000830452F8231063681B0503F4700343EAA3
:1017C0000173A168090401F470210B43E168090267
:1017D00089B20B43227C13431D46C9E70024CAE7A4
:1017E00000231D46C4E700BF9CED0034000408340C
:1017F0002DE9F04788B0214C0225C4F85C5AD4F892
:101800005C320293029BC4F85C5AD4F85C320193B8
:10181000019B4FF4806303934FF0120ACDF810A0A0
:101820004FF00009CDF8149006954FF00408CDF85C
:101830001C8003AF124E3946304604F065FD4FF46C
:1018400000630393CDF810A0CDF814900695CDF861
:101850001C803946304604F057FD4FF48003C4F82D
:10186000643AD4F864220092009AC4F8243A04F549
:101870008054C4F8243208B0BDE8F08700800256D6
:101880000004025610B586B04FF480610191084CF7
:10189000204604F04DFE4FF400610191204604F013
:1018A00047FE044B4FF48002C3F8642206B010BD1B
:1018B000000402560090025600B585B04FF47A7CC1
:1018C000CDF808C0BDF818C0CDF804C00093134689
:1018D0000A460146044806F0BBFE08B905B000BD43
:1018E0006FF00700FAE700BFA803083400B585B021
:1018F0004FF47A7CCDF808C0BDF818C0CDF804C00C
:10190000009313460A460146044806F05FFF08B9F3
:1019100005B000BD6FF00700FAE700BFA803083468
:1019200008B5094A1368013B13600BB1002008BDDC
:101930000648FFF7A7FF054806F071FE0028F6D01D
:101940006FF00700F3E700BF000E0834A803083467
:1019500010B504464160002383600122C260036128
:1019600043618361C361036206F0F4FD08B10120A5
:1019700010BD0146204606F0F4FF0028F7D10146CD
:10198000204607F019F80028F2D00120F0E7000007
:1019900008B5104B104A1A60104B1B680BB10020A1
:1019A00008BD01330D4A13600A4806F0D5FF002830
:1019B000F5D10848FFF71CFF00F064F90849FFF76C
:1019C000D1FE01460348FFF7C3FF0028E8D06FF0BF
:1019D0000700E5E7A803083400580050000E08345B
:1019E000A086010000B583B0009313460222FFF7E2
:1019F00063FF08B903B000BD054806F0B0FF042836
:101A000002D06FF00300F5E76FF06500F2E700BF6A
:101A1000A803083400B583B0009313460222FFF7F1
:101A200065FF08B903B000BD054806F098FF04281B
:101A300002D06FF00300F5E76FF06500F2E700BF3A
:101A4000A803083408B500F0A5F808BD08B503469A
:101A50000D4A0E490E48006840B10D480068034425
:101A6000521A934208D80A4A136008BD0848DFF8A2
:101A700024C0C0F800C0F0E70BF03CFA0C23036070
:101A80004FF0FF30F1E700BF0000203400080000F5
:101A9000040E0834A81908340120704708B50BF06B
:101AA00029FA162303604FF0FF3008BD08B54FF048
:101AB000FF31FFF7F3FFFEE770B50E461546002431
:101AC00006E0AFF30080314601F8010B01340E4609
:101AD000AC42F6DB284670BD70B50C4616460025B4
:101AE00004E014F8010BFFF7DBFC0135B542F8DB2D
:101AF000304670BD4FF0FF3070474FF400534B60DD
:101B00000020704701207047002070470F4B1B7862
:101B10000BB90120704710B504460D4A10684FF408
:101B20007A72B2FBF3F3B0FBF3F006F043FB08B9B3
:101B30000F2C01D9012010BD024621464FF0FF3085
:101B400006F024FB034B1C600020F4E70C00083473
:101B5000000008341000083410B5032006F004FB20
:101B6000FFF710FB0F20FFF7D1FF18B101231C4630
:101B7000204610BD0446FFF726FAF9E7034B1B7811
:101B8000034A11680B441360704700BF0C0008340F
:101B9000080E0834014B1868704700BF080E08345F
:101BA00038B50446FFF7F6FF0546B4F1FF3F02D013
:101BB000044B1B781C44FFF7EDFF401BA042FAD3F7
:101BC00038BD00BF0C000834214B1B6A03F04053A2
:101BD000B3F1005F38D010B50C460AD8DBB1B3F1D1
:101BE000805F16D11A4B5B6C13F4007F2ED019481E
:101BF00010E0B3F1405F0CD1B0F1005F1FD011D8FD
:101C0000C0B1B0F1805F04D101F0E0FEB0FBF4F0B0
:101C100000E0002010BD0E4B9B6CC3F3C1130E48B7
:101C2000D840F7E7B0F1405FF3D101F05FFFB0FBC0
:101C3000F4F0EFE701F082FEB0FBF4F0EAE701F028
:101C40000DFFB0FBF4F0E5E7044870470448E1E716
:101C5000008002560024F4000090D00300366E018C
:101C600000093D0008B5064BD3F8C800D3F8C810EA
:101C7000C1F30741013100F04050FFF7A5FF08BD57
:101C80000080025608B5FFF7EDFF054A536AC3F31B
:101C90000253D840536A03F00703D84008BD00BF81
:101CA0000080025600B55FFA80FC09495CF80130FB
:101CB000020EC0F3042E02FA0EF223EA0203C0F36E
:101CC000074000FA0EF003434CF8013000BD00BF9E
:101CD00044810256C2B2054BD358020EC0F3042110
:101CE0008A401340CB4040EA03407047448102568B
:101CF000024B5B6AC3F30253D84070470080025620
:101D0000024B5B6A03F00703D8407047008002561D
:101D1000024B5B6AC3F30213D8407047008002563F
:101D2000024B5B6AC3F30233D8407047008002560F
:101D3000024B5B6AC3F30243D840704700800256EF
:101D4000B0F1005F21D010D8A0B1B0F1805F0AD10E
:101D5000144B586810F0040022D05B6C13F4007F21
:101D60001BD11148704700207047B0F1405F12D17D
:101D70000E4870470B4B586810F0080010D09B6C51
:101D8000C3F3C1130A48D8407047064B586810F097
:101D9000100004D17047002070470648704706487D
:101DA000704700BF0080025600093D000080BB0064
:101DB0000090D0030024F40000366E0107EE900A74
:101DC00006EE101A07EE102A06EE903AF8EE677A41
:101DD000B8EE477AF8EE666ADFED0E5A66EEA56A4F
:101DE00037EE267A67EE877AB8EE467A87EE876A0C
:101DF000DDED007AF8EE677AC6EE276ADDED017A4E
:101E0000F8EE677A86EEA77AFCEEC77A17EE900AAC
:101E1000704700BF00008033174BD3F85C3103F4E8
:101E20004073B3F5007F0BD0B3F5407F0ED0B3F510
:101E3000807F19D1104B586810F0020016D17047FE
:101E40000D4B586810F0010013D170470A4B5868C9
:101E500010F01000F9D0D3F85C31C3F3053301332F
:101E60000648B0FBF3F07047002070474FF4004085
:101E700070474FF4FA40E8E70080025600366E01E2
:101E800038B50446036813F0006F4BD0AD4BD3F860
:101E90005C3113F440730ED0D0F8882102F4407204
:101EA0009A4208D0A84BDA6A42F00102DA62DB6A91
:101EB00013F0010F45D0D4F88831B3F5807F15D0E9
:101EC000002585BBD4F8883103F44072B2F5407F19
:101ED0001DD0D4F8883103F440739A49D1F85C21BD
:101EE00022F440721343C1F85C311CE0FFF752FE4C
:101EF0000546944B5B6813F0020FE1D1FFF74AFEF1
:101F0000401B41F288339842F3D90325D9E723F4E3
:101F100040738C49D1F85C2122F47C321343C1F820
:101F20005C31D6E70025236813F0040F27D0D4F8DE
:101F3000B830033B042B18D8DFE803F05E05364ABF
:101F400074000125EFE77F4AD2F8D43023F04353E1
:101F500023F47C13A16AE06A013841EA00410B4393
:101F6000C2F8D4301023C2F8403AD4F8B8307549DA
:101F7000D1F85C2122F007021343C1F85C31636899
:101F800013F4800F7AD0D4F8AC30704A93425FD00B
:101F90006F4A934200F086806E4A93426AD1694B41
:101FA0004022C3F8482A65E0664AD2F8E83023F0B8
:101FB000435323F47C13216D606D013841EA0041E5
:101FC0000B43C2F8E8304FF40073C2F8403ACCE754
:101FD0005C4AD2F8FC3023F0435323F47C13A16F06
:101FE000E06F013841EA00410B43C2F8FC304FF486
:101FF0008043C2F8403AB8E7524AD2F80C3123F095
:10200000435323F47C13D4F89810D4F89C0001387F
:1020100041EA00410B43C2F80C314FF48023C2F86F
:10202000403AA2E7474AD2F8103123F0435323F451
:102030007C13D4F8A010D4F8A400013841EA004180
:102040000B43C2F810314FF40023C2F8403A8CE73A
:102050003C4AD2F8CC3023F0435323F47C13A169DB
:10206000E069013841EA00410B43C2F8CC30042357
:10207000C2F8403AD4F8AC00FFF714FE636813F4DA
:10208000000F38D0D4F8B030334A93421DD0334AD1
:10209000934244D0324A934229D12A4B4022C3F87A
:1020A000482A24E0274AD2F8D03023F0435323F4BF
:1020B0007C13216A606A013841EA00410B43C2F88F
:1020C000D0300823C2F8403AD4E71E4AD2F8CC30C8
:1020D00023F0435323F47C13A169E069013841EAFA
:1020E00000410B43C2F8CC300423C2F8403AD4F884
:1020F000B000FFF7D7FD636813F0807F4ED0D4F8AF
:10210000B430184A934233D0174A934257D0174AF3
:1021100093423FD10B4B4022C3F8482A3AE0094A88
:10212000D2F8D03023F0435323F47C13216A606A41
:10213000013841EA00410B43C2F8D0300823C2F80D
:10214000403AD4E7008002560048025614000203C9
:102150001400030314000103140402031404030312
:1021600014040103140802031408030314080103F0
:102170009D4AD2F8CC3023F0435323F47C13A16959
:10218000E069013841EA00410B43C2F8CC30042336
:10219000C2F8403AD4F8B400FFF784FD236813F482
:1021A000006F3BD0D4F8A830202B1BD0302B49D067
:1021B000102B29D18C4B4022C3F8482A24E08A4AAC
:1021C000D2F8D03023F0435323F47C13216A606AA1
:1021D000013841EA00410B43C2F8D0300823C2F86D
:1021E000403AD7E7804AD2F8CC3023F0435323F467
:1021F0007C13A169E069013841EA00410B43C2F850
:10220000CC300423C2F8403AD4F8A8307649D1F84B
:102210004C2122F030021343C1F84C31236813F0F3
:10222000804F38D0D4F82C31704A93421DD0704A78
:10223000934243D06F4A934229D16B4B4022C3F85B
:10224000482A24E0684AD2F8D03023F0435323F4DC
:102250007C13216A606A013841EA00410B43C2F8ED
:10226000D0300823C2F8403ACEE75F4AD2F8D030E7
:1022700023F0435323F47C13216A606A013841EA56
:1022800000410B43C2F8D0300823C2F8403AD4F8DA
:102290002C01FFF707FD2368002B38DAD4F8303122
:1022A000554A93421DD0554A934241D0544A9342D5
:1022B00029D14D4B4022C3F8482A24E04A4AD2F89B
:1022C000D43023F0435323F47C13A16AE06A01382D
:1022D00041EA00410B43C2F8D4301023C2F8403A1F
:1022E000D5E7414AD2F8D03023F0435323F47C138E
:1022F000216A606A013841EA00410B43C2F8D030DC
:102300000823C2F8403AD4F83001FFF7CBFC236829
:1023100013F0010F42D0D4F8BC30202B1BD0302B4F
:102320004ED0102B29D1304B4022C3F8482A24E04C
:102330002D4AD2F8D43023F0435323F47C13A16AFE
:10234000E06A013841EA00410B43C2F8D43010235F
:10235000C2F8403AD7E7244AD2F8DC3023F043539E
:1023600023F47C13A16BE06B013841EA00410B437D
:10237000C2F8DC304023C2F8403A1B48D0F8443160
:1023800023F47F4323F07003D4F8C020511ED4F807
:10239000BC2042EA01221343C0F84431236813F001
:1023A000020F4BD0D4F8C430022B2BD0032B00F0FB
:1023B0000181012B38D10C4B4022C3F8482A33E06D
:1023C000094AD2F8E03023F0435323F47C13216C04
:1023D000606C013841EA00410B43C2F8E0308023D1
:1023E000C2F8403AC9E700BF008002561C00020351
:1023F0001C0003031C0001031C0402031C04030350
:102400001C040103C84AD2F8DC3023F0435323F400
:102410007C13A16BE06B013841EA00410B43C2F829
:10242000DC304023C2F8403AD4F8C430BE49D1F879
:10243000442122F007021343C1F84431236813F00A
:10244000080F14D0B84AD2F8083123F0435323F4CC
:102450007C13D4F89010D4F89400013841EA00417C
:102460000B43C2F808314FF40033C2F8403A2368F6
:1024700013F0100F13D0D4F8C830B3F5001F00F0DC
:10248000AC80B3F5801F00F0BE80D4F8C830A649F8
:10249000D1F8442122F440121343C1F84431236897
:1024A00013F0200F13D0D4F8CC30B3F5005F00F058
:1024B000AF80B3F5805F00F0BF80D4F8CC309A498C
:1024C000D1F8482122F440521343C1F8483123681F
:1024D00013F0400F09D0D4F8D0309349D1F84821F7
:1024E00022F4E0221343C1F84831236813F0800F2F
:1024F00009D0D4F8D4308C49D1F8482122F4801284
:102500001343C1F84831236813F4807F09D0D4F80D
:10251000D8308549D1F8482122F080721343C1F8A0
:102520004831236813F4007F16D0D4F8DC30022B36
:1025300000F08780012B00F098807B48D0F848316C
:1025400023F0F303D4F8E020511ED4F8DC2042EA53
:1025500001121343C0F84831236813F4806F11D07F
:10256000D4F8E430022B00F08580012B00F0988035
:10257000D4F8E4306C49D1F84C2122F00302134323
:10258000C1F84C31236813F4805F00F0A580D4F8C3
:10259000E830664A934200F08880654A934200F032
:1025A000AF80644A934240F093805F4B4022C3F86F
:1025B000482A8DE05C4AD2F8E03023F0435323F4FC
:1025C0007C13216C606C013841EA00410B43C2F876
:1025D000E0308023C2F8403A26E7534AD2F804316B
:1025E00023F0435323F47C13D4F88810D4F88C00E0
:1025F000013841EA00410B43C2F804314FF4803303
:10260000C2F8403A41E7484B4022C3F8482A3CE729
:10261000454AD2F8F03023F0435323F47C13216E63
:10262000606E013841EA00410B43C2F8F0304FF4CC
:102630000063C2F8403A40E73B4B4022C3F8482AC7
:102640003BE7394AD2F8F43023F0435323F47C13A8
:10265000A16EE06E013841EA00410B43C2F8F4304C
:102660004FF48053C2F8403A67E72F4B4022C3F83B
:10267000482A62E72C4AD2F80C3123F0435323F462
:102680007C13D4F89810D4F89C00013841EA00413A
:102690000B43C2F80C314FF48023C2F8403A67E78D
:1026A000214B4022C3F8482A62E71F4AD2F8E8309B
:1026B00023F0435323F47C13216D606D013841EA0C
:1026C00000410B43C2F8E8304FF40073C2F8403ABF
:1026D000D4F8E800FFF7E6FA236813F4005F48D067
:1026E000D4F8EC30144A93422CD0144A934254D07C
:1026F000134A934239D10C4B4022C3F8482A34E0A4
:10270000094AD2F8FC3023F0435323F47C13A16F21
:10271000E06F013841EA00410B43C2F8FC304FF44E
:102720008043C2F8403AD3E7008002560C0002070B
:102730000C0003070C0001070C0402070C0403073C
:102740000C0401077E4AD2F8E83023F0435323F407
:102750007C13216D606D013841EA00410B43C2F8E2
:10276000E8304FF40073C2F8403AD4F8EC00FFF7B9
:1027700099FA236813F4804F3AD0D4F8F030714AB4
:1027800093421ED0704A934246D0704A93422BD156
:102790006B4B4022C3F8482A26E0694AD2F8FC3045
:1027A00023F0435323F47C13A16FE06F013841EA17
:1027B00000410B43C2F8FC304FF48043C2F8403A6A
:1027C000D3E75F4AD2F8E83023F0435323F47C1375
:1027D000216D606D013841EA00410B43C2F8E830D9
:1027E0004FF40073C2F8403AD4F8F000FFF75AFAF9
:1027F000236813F4004F3AD0D4F8F430544A93428B
:102800001ED0544A934246D0534A93422BD14C4B4C
:102810004022C3F8482A26E0494AD2F8FC3023F087
:10282000435323F47C13A16FE06F013841EA004168
:102830000B43C2F8FC304FF48043C2F8403AD3E770
:102840003F4AD2F8E83023F0435323F47C13216D40
:10285000606D013841EA00410B43C2F8E8304FF4A3
:102860000073C2F8403AD4F8F400FFF71BFA23686B
:1028700013F4803F3AD0D4F8F830384A93421ED04F
:10288000374A934247D0374A93422BD12C4B4022B0
:10289000C3F8482A26E02A4AD2F8FC3023F04353F2
:1028A00023F47C13A16FE06F013841EA00410B4330
:1028B000C2F8FC304FF48043C2F8403AD3E7204AD4
:1028C000D2F8E83023F0435323F47C13216D606D7C
:1028D000013841EA00410B43C2F8E8304FF400737D
:1028E000C2F8403AD4F8F800FFF7DCF9236813F493
:1028F000003F56D0D4F8FC301B4A93423AD01B4AD2
:10290000934200F0BF801A4A934246D10C4B4022BA
:10291000C3F8482A41E00A4AD2F8FC3023F0435376
:1029200023F47C13A16FE06F013841EA00410B43AF
:10293000C2F8FC304FF48043C2F8403AD2E700BFFF
:10294000008002560C0802070C0803070C08010758
:102950000C0C02070C0C03070C0C01070C100207EF
:102960000C1003070C1001070C1402070C140307CA
:102970000C140107C54AD2F8E83023F0435323F47E
:102980007C13216D606D013841EA00410B43C2F8B0
:10299000E8304FF40073C2F8403AD4F8FC00FFF777
:1029A00081F9236813F4802F0CD0D4F80031B84A91
:1029B00093427BD0B74A934200F08C80D4F8000158
:1029C000FFF770F9236813F4002F0DD0D4F8043109
:1029D000B14A934200F08380B04A934200F0938062
:1029E000D4F80401FFF75EF9236813F4801F0DD0BB
:1029F000D4F80831AA4A934200F08A80A94A934247
:102A000000F09A80D4F80801FFF74CF9236813F41A
:102A1000001F0DD0D4F80C31A34A934200F09180EE
:102A2000A24A934200F0A180D4F80C01FFF73AF9D2
:102A3000236813F4800F0DD0D4F810319C4A9342D0
:102A400000F098809B4A934200F0A880D4F81001CF
:102A5000FFF728F9236813F4000F00F0C180D4F8C1
:102A60001431B3F5007F00F09E80B3F5407F00F095
:102A7000E280B3F5807F40F0A980844B4022C3F808
:102A8000482AA3E0814AD2F8FC3023F0435323F4D0
:102A90007C13A16FE06F013841EA00410B43C2F89B
:102AA000FC304FF48043C2F8403A76E7774AD2F8D8
:102AB000FC3023F0435323F47C13A16FE06F013803
:102AC00041EA00410B43C2F8FC304FF48043C2F8A6
:102AD000403A73E76D4B4022C3F8482A6EE76B4AD1
:102AE000D2F8FC3023F0435323F47C13A16FE06F42
:102AF000013841EA00410B43C2F8FC304FF48043F7
:102B0000C2F8403A6CE7614B4022C3F8482A67E7B5
:102B10005E4AD2F8FC3023F0435323F47C13A16FB8
:102B2000E06F013841EA00410B43C2F8FC304FF43A
:102B30008043C2F8403A65E7544B4022C3F8482A24
:102B400060E7524AD2F8FC3023F0435323F47C135D
:102B5000A16FE06F013841EA00410B43C2F8FC303D
:102B60004FF48043C2F8403A5EE7484B4022C3F836
:102B7000482A59E7454AD2F8FC3023F0435323F45E
:102B80007C13A16FE06F013841EA00410B43C2F8AA
:102B9000FC304FF48043C2F8403A57E73B4B4022A9
:102BA000C3F8482A52E7394AD2F8E43023F04353B5
:102BB00023F47C13A16CE06C013841EA00410B4323
:102BC000C2F8E4304FF48073C2F8403AD4F81431BC
:102BD0002E49D1F8782122F4E0621343C1F878310C
:102BE000236813F0807F11D0D4F81831B3F1007F3F
:102BF00035D0B3F1807F5FD0D4F818312349D1F8B4
:102C0000502122F040721343C1F85031236813F071
:102C1000007F72D0D4F81C31B3F5003F51D0B3F52A
:102C2000403F00F09280B3F5803F5CD1174B4022CB
:102C3000C3F8482A57E0154AD2F8F83023F0435336
:102C400023F47C13216F606F013841EA00410B438C
:102C5000C2F8F8304FF40053C2F8403AB6E70B4AD6
:102C6000D2F8003123F0435323F47C13D4F88010BE
:102C7000D4F88400013841EA00410B43C2F8003126
:102C80004FF40043C2F8403AB6E700BF0080025656
:102C90002C0802072C0801072C0C02072C0C01073A
:102CA0002C1002072C1001072C1402072C1401070A
:102CB0002C1802072C180107B74B4022C3F8482AEA
:102CC0009AE7B54AD2F8DC3023F0435323F47C135F
:102CD000A16BE06B013841EA00410B43C2F8DC30E4
:102CE0004023C2F8403AD4F81C31AB49D1F8542102
:102CF00022F4E0221343C1F85431236813F0806FAB
:102D00000FD0D4F82031202B32D0102B46D0D4F85D
:102D10002031A149D1F85C2122F030021343C1F8DF
:102D20005C31236813F0805F53D0D4F824319B4A80
:102D3000934238D09A4A93425FD09A4A934244D100
:102D4000954B4022C3F8482A3FE0934AD2F8E0303E
:102D500023F0435323F47C13216C606C013841EA67
:102D600000410B43C2F8E0308023C2F8403ABAE792
:102D7000894AD2F8103123F0435323F47C13D4F85A
:102D8000A010D4F8A400013841EA00410B43C2F876
:102D900010314FF40023C2F8403AB8E77E4B40228E
:102DA000C3F8482AB3E77C4AD2F8DC3023F0435317
:102DB00023F47C13A16BE06B013841EA00410B4323
:102DC000C2F8DC304023C2F8403AD4F82401FEF7C0
:102DD00069FF236813F0005F38D0D4F82831724AB5
:102DE00093421DD0714A934241D0714A934229D1F6
:102DF000694B4022C3F8482A24E0674AD2F8E03001
:102E000023F0435323F47C13216C606C013841EAB6
:102E100000410B43C2F8E0308023C2F8403AD4E7C7
:102E20005D4AD2F8DC3023F0435323F47C13A16BCA
:102E3000E06B013841EA00410B43C2F8DC3040232B
:102E4000C2F8403AD4F82801FEF72CFF636813F06B
:102E5000010F3BD0D4F84C31022B1BD0032B49D0AF
:102E6000012B29D14C4B4022C3F8482A24E04A4A7E
:102E7000D2F8E03023F0435323F47C13216C606CD0
:102E8000013841EA00410B43C2F8E0308023C2F828
:102E9000403AD7E7404AD2F8DC3023F0435323F4DA
:102EA0007C13A16BE06B013841EA00410B43C2F88F
:102EB000DC304023C2F8403AD4F84C313649D1F8DE
:102EC000642122F007021343C1F86431636813F0F0
:102ED000020F38D0D4F83431364A93421DD0364AE6
:102EE000934244D0354A934229D12B4B4022C3F818
:102EF000482A24E0284AD2F8E03023F0435323F450
:102F00007C13216C606C013841EA00410B43C2F82C
:102F1000E0308023C2F8403ACEE71F4AD2F8E030D2
:102F200023F0435323F47C13216C606C013841EA95
:102F300000410B43C2F8E0308023C2F8403AD4F895
:102F40003401FEF7AFFE636813F0040F54D0D4F8D9
:102F500038311B4A934239D01A4A934260D01A4AF8
:102F6000934245D10C4B4022C3F8482A40E00A4A1C
:102F7000D2F8E43023F0435323F47C13A16CE06CCB
:102F8000013841EA00410B43C2F8E4304FF480734A
:102F9000C2F8403AD3E700BF008002561814020777
:102FA0001814030718140107181802071818030744
:102FB0001818010720040207200403072004010752
:102FC000200802072008030720080107BB4AD2F89F
:102FD000E03023F0435323F47C13216C606C013800
:102FE00041EA00410B43C2F8E0308023C2F8403A86
:102FF000D4F83801FEF756FE636813F0080F39D095
:10300000D4F83C31AE4A93421ED0AE4A934245D0EA
:10301000AD4A93422AD1A94B4022C3F8482A25E061
:10302000A64AD2F8E43023F0435323F47C13A16C76
:10303000E06C013841EA00410B43C2F8E4304FF440
:103040008073C2F8403AD3E79C4AD2F8E03023F0CC
:10305000435323F47C13216C606C013841EA004136
:103060000B43C2F8E0308023C2F8403AD4F83C0168
:10307000FEF718FE636813F0100F3AD0D4F8403111
:10308000924A93421ED0924A934246D0914A93422A
:103090002BD18A4B4022C3F8482A26E0874AD2F82F
:1030A000E43023F0435323F47C13A16CE06C01382B
:1030B00041EA00410B43C2F8E4304FF48073C2F898
:1030C000403AD3E77D4AD2F8E43023F0435323F467
:1030D0007C13A16CE06C013841EA00410B43C2F85B
:1030E000E4304FF48073C2F8403AD4F84001FEF760
:1030F000D9FD636813F0200F3AD0D4F84431764AF2
:1031000093421ED0754A934246D0754A93422BD1C2
:103110006A4B4022C3F8482A26E0684AD2F8F830C1
:1031200023F0435323F47C13216F606F013841EA8D
:1031300000410B43C2F8F8304FF40053C2F8403A54
:10314000D3E75E4AD2F8E43023F0435323F47C13F0
:10315000A16CE06C013841EA00410B43C2F8E43055
:103160004FF48073C2F8403AD4F84401FEF79AFD58
:10317000636813F0400F39D0D4F84831594A93426C
:103180001ED0594A934245D0584A93422AD14B4BBC
:103190004022C3F8482A25E0484AD2F8F83023F004
:1031A000435323F47C13216F606F013841EA0041DF
:1031B0000B43C2F8F8304FF40053C2F8403AD3E75B
:1031C0003E4AD2F8E03023F0435323F47C13216CC1
:1031D000606C013841EA00410B43C2F8E0308023C3
:1031E000C2F8403AD4F84801FEF75CFD636813F476
:1031F000807F3AD0D4F850313D4A93421ED03D4AA8
:10320000934246D03C4A93422BD12C4B4022C3F8E8
:10321000482A26E0294AD2F8E43023F0435323F425
:103220007C13A16CE06C013841EA00410B43C2F809
:10323000E4304FF48073C2F8403AD3E71F4AD2F823
:10324000E43023F0435323F47C13A16CE06C013889
:1032500041EA00410B43C2F8E4304FF48073C2F8F6
:10326000403AD4F85001FEF71DFD636813F4007F67
:1032700061D0D4F85431214A934245D0204A934238
:103280006DD0204A934252D10C4B4022C3F8482AB9
:103290004DE00A4AD2F8F83023F0435323F47C136C
:1032A000216F606F013841EA00410B43C2F8F830EA
:1032B0004FF40053C2F8403AD3E700BF00800256F3
:1032C000200C0207200C0307200C01072010020726
:1032D0002010030720100107201402072014030701
:1032E00020140107201802072018030720180107DF
:1032F00030000207300003073000010730040207E6
:103300003004030730040107BC4AD2F8E43023F04C
:10331000435323F47C13A16CE06C013841EA004173
:103320000B43C2F8E4304FF48073C2F8403AD4F84B
:103330005401FEF7B7FC636813F4806F3AD0D4F8F9
:103340005831AF4A93421ED0AE4A934246D0AE4A5D
:1033500093422BD1A94B4022C3F8482A26E0A74A22
:10336000D2F8F83023F0435323F47C13216F606FBD
:10337000013841EA00410B43C2F8F8304FF40053E2
:10338000C2F8403AD3E79D4AD2F8E43023F04353E1
:1033900023F47C13A16CE06C013841EA00410B433B
:1033A000C2F8E4304FF48073C2F8403AD4F85801C0
:1033B000FEF778FC636813F4006F3AD0D4F85C3100
:1033C000924A93421ED0924A934246D0914A9342E7
:1033D0002BD18A4B4022C3F8482A26E0874AD2F8EC
:1033E000F83023F0435323F47C13216F606F0138CE
:1033F00041EA00410B43C2F8F8304FF40053C2F8E1
:10340000403AD3E77D4AD2F8E43023F0435323F423
:103410007C13A16CE06C013841EA00410B43C2F817
:10342000E4304FF48073C2F8403AD4F85C01FEF700
:1034300039FC636813F4805F3AD0D4F86031764A7F
:1034400093421ED0754A934246D0754A93422BD17F
:103450006A4B4022C3F8482A26E0684AD2F8F8307E
:1034600023F0435323F47C13216F606F013841EA4A
:1034700000410B43C2F8F8304FF40053C2F8403A11
:10348000D3E75E4AD2F8E43023F0435323F47C13AD
:10349000A16CE06C013841EA00410B43C2F8E43012
:1034A0004FF48073C2F8403AD4F86001FEF7FAFB9B
:1034B000636813F4005F3AD0D4F86431594A9342F8
:1034C0001ED0594A934246D0584A93422BD14B4B77
:1034D0004022C3F8482A26E0484AD2F8F83023F0C0
:1034E000435323F47C13216F606F013841EA00419C
:1034F0000B43C2F8F8304FF40053C2F8403AD3E718
:103500003E4AD2F8E43023F0435323F47C13A16CF9
:10351000E06C013841EA00410B43C2F8E4304FF45B
:103520008073C2F8403AD4F86401FEF7BBFB6368CD
:1035300013F4804F3AD0D4F868313D4A93421ED0FC
:103540003C4A934246D03C4A93422BD12B4B4022DB
:10355000C3F8482A26E0294AD2F8F83023F043532A
:1035600023F47C13216F606F013841EA00410B4363
:10357000C2F8F8304FF40053C2F8403AD3E71F4A7C
:10358000D2F8E43023F0435323F47C13A16CE06CB5
:10359000013841EA00410B43C2F8E4304FF4807334
:1035A000C2F8403AD4F86801FEF77CFB636813F474
:1035B000004F60D0D4F86C31204A934244D0204A66
:1035C00093426CD01F4A934251D10C4B4022C3F816
:1035D000482A4CE0094AD2F8F83023F0435323F448
:1035E0007C13216F606F013841EA00410B43C2F840
:1035F000F8304FF40053C2F8403AD3E70080025647
:10360000300802073008030730080107300C0207B2
:10361000300C0307300C010730100207301003078D
:10362000301001073014020730140307301401076B
:10363000301802073018030730180107301C020742
:10364000301C0307301C0107B14AD2F8E43023F0E4
:10365000435323F47C13A16CE06C013841EA004130
:103660000B43C2F8E4304FF48073C2F8403AD4F808
:103670006C01FEF717FB636813F4803F3AD0D4F86F
:103680007031A44A93421ED0A34A934247D0A34A22
:1036900093422BD19E4B4022C3F8482A26E09C4AF5
:1036A000D2F8F83023F0435323F47C13216F606F7A
:1036B000013841EA00410B43C2F8F8304FF400539F
:1036C000C2F8403AD3E7924AD2F8E43023F04353A9
:1036D00023F47C13A16CE06C013841EA00410B43F8
:1036E000C2F8E4304FF48073C2F8403AD4F8700165
:1036F000FEF7D8FA636813F4003F3BD0D4F8743176
:10370000874A93421FD0874A934200F08280864ABC
:1037100093422BD17E4B4022C3F8482A26E07C4AB4
:10372000D2F8F83023F0435323F47C13216F606FF9
:10373000013841EA00410B43C2F8F8304FF400531E
:10374000C2F8403AD2E7724AD2F8E43023F0435349
:1037500023F47C13A16CE06C013841EA00410B4377
:10376000C2F8E4304FF48073C2F8403AD4F87401E0
:10377000FEF798FA636813F4802F16D0D4F87831E6
:103780006A4A934259D06A4A93426AD0D4F878017F
:1037900020F00040FEF786FAD4F87831002B65DB84
:1037A0005B4A536D23F040035365636813F4801F35
:1037B00016D0D4F880315F4A93425DD05E4A93427E
:1037C0006ED0D4F8800120F00040FEF76BFAD4F8F8
:1037D0008031002B69DB4E4A536D23F04003536563
:1037E000636813F4002F66D1636813F4001F78D167
:1037F000636813F0800F08D0D4F88C11444A536AE0
:1038000023F0407343EA0163536205B10125284662
:1038100038BD3F4AD2F8F83023F0435323F47C13E9
:10382000216F606F013841EA00410B43C2F8F83064
:103830004FF40053C2F8403A98E7354AD2F8FC30CA
:1038400023F0435323F47C13A16FE06F013841EA66
:1038500000410B43C2F8FC304FF48043C2F8403AB9
:1038600094E72B4B4022C3F8482A8FE7284A536D30
:1038700043F04003536598E7254AD2F8FC3023F023
:10388000435323F47C13A16FE06F013841EA0041F8
:103890000B43C2F8FC304FF48043C2F8403A90E743
:1038A0001B4B4022C3F8482A8BE7194A536D43F05B
:1038B0004003536594E7D4F87C0120F00040FEF704
:1038C000F1F9D4F87C31002B05DB114A536D23F05C
:1038D0004003536588E70E4A536D43F04003536538
:1038E00082E7D4F8840120F00040FEF7DBF9D4F839
:1038F0008431002B05DB064A536D23F040035365EA
:1039000076E7034A536D43F04003536570E700BF09
:103910000080025634000207340003073400010718
:10392000340402073404030734040107140C0203AF
:10393000140C0103141402031414010300B583B022
:10394000214B5B6813F4807F07D01F4BD3F88800AE
:1039500010F080400FD103B000BD1B4BD3F88000A6
:1039600010F00060F7D0184BD3F8800000F0E04072
:10397000FEF7E6F9EFE7144BD3F8800000F0E040E3
:10398000FEF7DEF90028E6D00F4BD3F88030C3F302
:10399000055113F07C7F15D00B4BD3F880C0D3F8C2
:1039A00084E0D3F88820C2F3C262D3F88830C3F32E
:1039B0000263019300922EF07F43CCF30B22FEF7BB
:1039C000FDF9C8E70846C6E70080025600B583B097
:1039D000214B5B6813F4007F07D01F4BD3F898008E
:1039E00010F080400FD103B000BD1B4BD3F8900006
:1039F00010F00060F7D0184BD3F8900000F0E040D2
:103A0000FEF79EF9EFE7144BD3F8900000F0E0408A
:103A1000FEF796F90028E6D00F4BD3F89030C3F3A9
:103A2000055113F07C7F15D00B4BD3F890C0D3F821
:103A300094E0D3F89820C2F3C262D3F89830C3F36D
:103A40000263019300922EF07F43CCF30B22FEF72A
:103A5000B5F9C8E70846C6E70080025600B583B04E
:103A6000214B5B6813F4806F07D01F4BD3F8A8007D
:103A700010F080400FD103B000BD1B4BD3F8A00065
:103A800010F00060F7D0184BD3F8A00000F0E04031
:103A9000FEF756F9EFE7144BD3F8A00000F0E04032
:103AA000FEF74EF90028E6D00F4BD3F8A030C3F351
:103AB000055113F07C7F15D00B4BD3F8A0C0D3F881
:103AC000A4E0D3F8A820C2F3C262D3F8A830C3F3AD
:103AD0000263019300922EF07F43CCF30B22FEF79A
:103AE0006DF9C8E70846C6E70080025600B583B006
:103AF000214B5B6813F4006F07D01F4BD3F8B8005D
:103B000010F080400FD103B000BD1B4BD3F8B000C4
:103B100010F00060F7D0184BD3F8B00000F0E04090
:103B2000FEF70EF9EFE7144BD3F8B00000F0E040D9
:103B3000FEF706F90028E6D00F4BD3F8B030C3F3F8
:103B4000055113F07C7F15D00B4BD3F8B0C0D3F8E0
:103B5000B4E0D3F8B820C2F3C262D3F8B830C3F3EC
:103B60000263019300922EF07F43CCF30B22FEF709
:103B700025F9C8E70846C6E700800256194BD3F876
:103B8000400210F400302BD010B5D3F80801C0F378
:103B90000740421C1446D3F8083103F04053B3F1F8
:103BA000005F18D008D88BB1B3F1805F0CD1FFF75C
:103BB0000DFFB0FBF4F006E0B3F1405F04D1FFF776
:103BC00095FFB0FBF4F010BD0020FCE7FFF7B6FE58
:103BD000B0FBF4F0F7E7FFF741FFB0FBF4F0F2E7DA
:103BE000704700BF00800256904BD3F8480210F097
:103BF000400000F01A8110B5D3F85C3103F00703E0
:103C0000072B00F2FE80DFE803F0040F16AE1D4E16
:103C10007FDE864B586810F0080004D09B6CC3F31D
:103C2000C1138348D84010BD804B586810F0040081
:103C3000F9D08048F7E77D4B586810F01000F2D0BB
:103C40007D48F0E7794BD3F8400210F01000EAD03D
:103C5000D3F8D400C0F30740421C1446D3F8D43044
:103C600003F04053B3F1005F18D009D88BB1B3F122
:103C7000805F40F0C680FFF7A9FEB0FBF4F0D2E70A
:103C8000B3F1405F40F0BD80FFF730FFB0FBF4F0D0
:103C9000C9E7FFF753FEB0FBF4F0C4E7FFF7DEFE21
:103CA000B0FBF4F0BFE7614BD3F8400210F40070B2
:103CB000B9D0D3F8E800C0F30740421C1446D3F84B
:103CC000E83003F04053B3F1005F18D009D88BB14E
:103CD000B3F1805F40F09580FFF778FEB0FBF4F021
:103CE000A1E7B3F1405F40F08C80FFF7FFFEB0FB2F
:103CF000F4F098E7FFF722FEB0FBF4F093E7FFF74C
:103D0000ADFEB0FBF4F08EE7484BD3F8400210F460
:103D1000804088D0D3F8FC00C0F30740421C144612
:103D2000D3F8FC3003F04053B3F1005F16D008D84D
:103D30007BB1B3F1805F64D1FFF748FEB0FBF4F0D4
:103D400071E7B3F1405F5CD1FFF7D0FEB0FBF4F058
:103D500069E7FFF7F3FDB0FBF4F064E7FFF77EFEE1
:103D6000B0FBF4F05FE7314BD3F8400210F4802051
:103D70003FF459AFD3F80C01C0F30740421C14467E
:103D8000D3F80C3103F04053B3F1005F16D008D8DC
:103D90007BB1B3F1805F34D1FFF718FEB0FBF4F0D4
:103DA00041E7B3F1405F2CD1FFF7A0FEB0FBF4F088
:103DB00039E7FFF7C3FDB0FBF4F034E7FFF74EFE41
:103DC000B0FBF4F02FE7194BD3F8400210F40020B9
:103DD0003FF429AFD3F81001C0F30740421C14464A
:103DE000D3F8103103F04053B3F1005F18D00AD874
:103DF0008BB1B3F1805F04D1FFF7E8FDB0FBF4F0C5
:103E000011E700200FE7B3F1405FFAD1FFF76EFE34
:103E1000B0FBF4F007E7FFF791FDB0FBF4F002E729
:103E2000FFF71CFEB0FBF4F0FDE670470080025681
:103E30000090D00300093D0000366E0110B5534BD1
:103E4000D3F8443103F07003402B00F08D802AD862
:103E5000202B48D007D8002B40D0102B34D107207E
:103E6000FFF7C2FE31E0302B2ED1484BD3F8400291
:103E700010F0800029D0D3F8E000C0F30740421CC6
:103E80001446D3F8E03003F04053B3F1005F66D03E
:103E900058D8002B5ED0B3F1805F15D1FFF796FDA7
:103EA000B0FBF4F011E0602B6DD0702B63D0502B81
:103EB0000AD1364B586810F0080006D09B6CC3F34B
:103EC000C1133348D84000E00020304BD3F84431D0
:103ED000C3F307230133B0FBF3F010BDFDF7C2FEBF
:103EE000FDF706FFF1E7294BD3F8400210F0400040
:103EF000EBD0D3F8DC00C0F30740421C1446D3F8E3
:103F0000DC3003F04053B3F1005F16D008D87BB12A
:103F1000B3F1805FD8D1FFF759FDB0FBF4F0D4E7DF
:103F2000B3F1405FD0D1FFF7E1FDB0FBF4F0CCE797
:103F3000FFF704FDB0FBF4F0C7E7FFF78FFDB0FB20
:103F4000F4F0C2E7B3F1405FBED1FFF7CFFDB0FBA5
:103F5000F4F0BAE7FFF7F2FCB0FBF4F0B5E7FFF7D7
:103F60007DFDB0FBF4F0B0E7084B586810F004009A
:103F7000ABD00848A9E7FDF775FE044B5B6AC3F3B5
:103F80000163D840A1E704489FE700BF00800256C4
:103F90000090D00300093D000080BB0010B5494BE4
:103FA000D3F8443103F00703072B5AD8DFE803F0B6
:103FB00004090D3C786D877FFDF754FEFDF798FEF0
:103FC00010BD0720FFF710FEFAE73E4BD3F8400282
:103FD00010F04000F4D0D3F8DC00C0F30740421CDE
:103FE0001446D3F8DC3003F04053B3F1005F16D031
:103FF00008D87BB1B3F1805F33D1FFF7E7FCB0FBAA
:10400000F4F0DDE7B3F1405F2BD1FFF76FFDB0FBBC
:10401000F4F0D5E7FFF792FCB0FBF4F0D0E7FFF740
:104020001DFDB0FBF4F0CBE7264BD3F8400210F0B7
:104030008000C5D0D3F8E000C0F30740421C14460E
:10404000D3F8E03003F04053B3F1005F18D00AD842
:104050008BB1B3F1805F04D1FFF7B8FCB0FBF4F093
:10406000AEE70020ACE7B3F1405FFAD1FFF73EFDC9
:10407000B0FBF4F0A4E7FFF761FCB0FBF4F09FE7BE
:10408000FFF7ECFCB0FBF4F09AE70E4B586810F029
:10409000080095D09B6CC3F3C1130B48D8408FE741
:1040A000084B586810F004008AD0084888E7FDF7EC
:1040B000D9FD044B5B6AC3F30163D84080E7044831
:1040C0007EE700BF008002560090D00300093D004B
:1040D0000080BB0010B52B4BD3F8443103F44013E0
:1040E000B3F5001F1FD007D8B3B1B3F5801F11D1AE
:1040F0000720FFF779FD0EE0B3F5401F0AD1214BF1
:10410000586810F0080006D09B6CC3F3C1131E481A
:10411000D84000E0002010BDFDF7A4FDFDF7E8FD4C
:10412000FDF706FEF7E7174BD3F8400210F4803096
:10413000F1D0D3F80401C0F30740421C1446D3F871
:10414000043103F04053B3F1005F16D008D87BB1BF
:10415000B3F1805FDED1FFF739FCB0FBF4F0DAE7B2
:10416000B3F1405FD6D1FFF7C1FCB0FBF4F0D2E76A
:10417000FFF7E4FBB0FBF4F0CDE7FFF76FFCB0FB1B
:10418000F4F0C8E7008002560090D00310B5284B29
:10419000D3F8483103F44053B3F5005F19D007D882
:1041A00093B1B3F5805F0DD10720FFF71DFD0AE045
:1041B000B3F5405F06D11E4B586810F0100002D0D6
:1041C0001C4800E0002010BDFDF74CFDFDF790FD00
:1041D000F9E7174BD3F8400210F40060F3D0D3F89E
:1041E000F000C0F30740421C1446D3F8F03003F04F
:1041F0004053B3F1005F16D008D87BB1B3F1805FB4
:10420000E0D1FFF7E3FBB0FBF4F0DCE7B3F1405F94
:10421000D8D1FFF76BFCB0FBF4F0D4E7FFF78EFBCF
:10422000B0FBF4F0CFE7FFF719FCB0FBF4F0CAE7FE
:104230000080025600366E0110B52A4BD3F8483183
:1042400003F00303032B31D8DFE803F0020F13441C
:10425000FDF708FDFDF74CFD224BD3F84831C3F3C1
:1042600003130133B0FBF3F010BD0720FFF7BCFCD4
:10427000F2E71C4BD3F8400210F48050ECD0D3F896
:10428000F400C0F30740421C1446D3F8F43003F0A6
:104290004053B3F1005F18D00AD88BB1B3F1805FFF
:1042A00004D1FFF793FBB0FBF4F0D5E70020D3E790
:1042B000B3F1405FFAD1FFF719FCB0FBF4F0CBE7A4
:1042C000FFF73CFBB0FBF4F0C6E7FFF7C7FBB0FB22
:1042D000F4F0C1E7034B586810F01000BCD002485E
:1042E000BAE700BF0080025600366E0110B5274BBA
:1042F000D3F84C3103F00303032B2BD8DFE803F092
:1043000002090D3EFDF7AEFCFDF7F2FCFDF7F8FCEF
:1043100010BD0720FFF768FCFAE71C4BD3F84002FA
:1043200010F48020F4D0D3F80C01C0F30740421CF5
:104330001446D3F80C3103F04053B3F1005F18D0AA
:104340000AD88BB1B3F1805F04D1FFF73FFBB0FB1C
:10435000F4F0DDE70020DBE7B3F1405FFAD1FFF7CF
:10436000C5FBB0FBF4F0D3E7FFF7E8FAB0FBF4F0DD
:10437000CEE7FFF773FBB0FBF4F0C9E7034B5868D7
:1043800010F01000C4D00248C2E700BF00800256FF
:1043900000366E0110B53B4BD3F84C3103F03003BF
:1043A000202B2ED006D83BB3102B23D10720FFF7AC
:1043B0001BFC20E0302B1DD1324BD3F8400210F013
:1043C000080018D0D3F8D000C0F30740421C1446B0
:1043D000D3F8D03003F04053B3F1005F4DD03FD855
:1043E000002B45D0B3F1805F04D1FFF7EFFAB0FBAB
:1043F000F4F000E0002010BDFDF734FCFDF778FC80
:10440000F9E7204BD3F8400210F00400F3D0D3F8C2
:10441000CC00C0F30740421C1446D3F8CC3003F064
:104420004053B3F1005F16D008D87BB1B3F1805F81
:10443000E0D1FFF7CBFAB0FBF4F0DCE7B3F1405F7B
:10444000D8D1FFF753FBB0FBF4F0D4E7FFF776FACF
:10445000B0FBF4F0CFE7FFF701FBB0FBF4F0CAE7E5
:10446000B3F1405FC6D1FFF741FBB0FBF4F0C2E708
:10447000FFF764FAB0FBF4F0BDE7FFF7EFFAB0FB2B
:10448000F4F0B8E70080025610B5FDF723FC6F4B3F
:10449000984200F091805AD8A3F5FC3398421FD07F
:1044A00022D8A3F57C4398420CD012D8A3F5006320
:1044B000984207D003F58063984203D0A3F50063C8
:1044C000984242D1FDF7CEFBFDF712FCFDF718FC38
:1044D0003CE05F4B984203D003F58063984234D1AF
:1044E0000720FFF781FB31E05A4B984207D024D9CF
:1044F000594B984203D003F58063984225D1574B1E
:10450000D3F8400210F4007020D0D3F8E800C0F3D4
:104510000740421C1446D3F8E83003F04053B3F18F
:10452000005F7CD06ED8002B74D0B3F1805F0CD1CB
:10453000FFF74CFAB0FBF4F008E0A3F5784398429B
:10454000CED003F574439842D9D0002010BD444B1F
:10455000984222D015D9434B984207D049D9424BB3
:10456000984203D003F580639842EED13B4B5868E4
:1045700010F00800EAD09B6CC3F3C1133B48D8404D
:10458000E4E7A3F57C43984216D00DD9384B984206
:1045900003D003F580639842D7D1304B586810F0B0
:1045A0000400D3D03348D1E7A3F50063984203D089
:1045B00003F580639842C8D1284BD3F8400210F429
:1045C0008040C3D0D3F8FC00C0F30740421C14461F
:1045D000D3F8FC3003F04053B3F1005F31D023D85F
:1045E00053B3B3F1805FB0D1FFF7F0F9B0FBF4F053
:1045F000ACE7A3F578439842CFD003F574439842D3
:10460000B4D0A2E7B3F1405F9FD1FFF76FFAB0FBE0
:10461000F4F09BE7FFF792F9B0FBF4F096E7FFF7B1
:104620001DFAB0FBF4F091E7B3F1405F8DD1FFF7D5
:104630005DFAB0FBF4F089E7FFF780F9B0FBF4F026
:1046400084E7FFF70BFAB0FBF4F07FE70C000307F9
:104650000C0001070C0402070C0802070080025638
:104660000C0804070C0405070C0805070090D0038C
:104670000C00040700093D0010B5FDF72BFB564B5D
:1046800098427AD03CD8A3F5FE3398425FD012D836
:10469000A3F58033984207D003F57C43984256D067
:1046A000A3F58033984250D1FDF7DCFAFDF720FBEB
:1046B000FDF726FB4AE0494B984203D003F580639F
:1046C000984242D1464BD3F8400210F400703DD0DE
:1046D000D3F8E800C0F30740421C1446D3F8E83092
:1046E00003F04053B3F1005F42D034D8002B3AD0EE
:1046F000B3F1805F29D1FFF769F9B0FBF4F025E051
:10470000384B98421AD011D9374B984203D003F551
:104710008063984219D1324B586810F0080015D0C8
:104720009B6CC3F3C1133148D8400FE0A3F580332D
:10473000984222D003F57C43984206D1284B586812
:1047400010F0040002D02A4800E0002010BD07202D
:10475000FFF74AFAFAE7B3F1405FF6D1FFF7C6F97F
:10476000B0FBF4F0F2E7FFF7E9F8B0FBF4F0EDE7A7
:10477000FFF774F9B0FBF4F0E8E7194BD3F8400207
:1047800010F48040E2D0D3F8FC00C0F30740421C94
:104790001446D3F8FC3003F04053B3F1005F16D059
:1047A00008D87BB1B3F1805FCFD1FFF70FF9B0FB31
:1047B000F4F0CBE7B3F1405FC7D1FFF797F9B0FB57
:1047C000F4F0C3E7FFF7BAF8B0FBF4F0BEE7FFF789
:1047D00045F9B0FBF4F0B9E70C1003070C10020721
:1047E000008002560C1404070C1005070090D0033B
:1047F00000093D0010B5FDF76DFA6D4B98425ED093
:1048000047D8A3F5FE3398422AD013D9694B984272
:104810000CD02CD9684B984251D036D8A3F57443AC
:10482000984203D003F5806398422CD10720FFF70C
:10483000DBF929E0A3F54063984206D1FDF712FAAF
:10484000FDF756FAFDF75CFA1EE0013B98421AD9D3
:1048500003F20143984203D003F58063984212D1DA
:10486000FDF700FAFDF744FAFDF75AFA0CE0A3F55C
:1048700000639842DAD003F580639842D6D0A3F55E
:1048800074439842ECD0002010BD4C4B984216D097
:10489000F9E74B4B984258D046D8A3F57C43984251
:1048A0002ED035D8A3F50063984229D025D8A3F59A
:1048B0007443984203D003F580639842E3D1414B9F
:1048C000D3F8400210F48040DED0D3F8FC00C0F3EF
:1048D0000740421C1446D3F8FC3003F04053B3F1B8
:1048E000005F5FD050D8002B57D0B3F1805FCAD1A2
:1048F000FFF76CF8B0FBF4F0C6E7334B9842C2D137
:10490000304B586810F00200BED04FF40040BBE7B7
:104910002E4B9842F4D003F57043984215D0A3F57E
:1049200074439842ECD0AEE7294B984218D01FD878
:10493000A3F57443984208D00FD8A3F500639842BA
:1049400003D003F5806398429DD11E4B586810F048
:10495000010099D04FF4FA4096E71E4B984292D14D
:10496000FDF780F9174B5B6AC3F30163D8408BE70F
:10497000194B9842F4D003F580639842F0D0A3F528
:1049800000639842ECD07EE7B3F1405F7FF47BAFE9
:10499000FFF7ACF8B0FBF4F076E7FEF7CFFFB0FB23
:1049A000F4F071E7FFF75AF8B0FBF4F06CE700BFE2
:1049B0002C1002072C1001072C0802072C0C0207F0
:1049C0002C0C0407008002562C0C03072C1803073C
:1049D0002C0C05072C0805072C14050710B54F4BA8
:1049E000D3F8783103F4E063B3F5407F54D00DD8A9
:1049F000B3F5807F1DD0B3F5007F1ED0BBB9FDF7A6
:104A000031F9FDF775F9FDF78BF911E0B3F5A06FFA
:104A10007CD0B3F5C06F6ED0B3F5806F07D13F4B3C
:104A2000586810F0020003D04FF4004000E000206E
:104A300010BD0720FFF7D8F8FAE7384BD3F840024B
:104A400010F48070F4D0D3F8E400C0F30740421CA7
:104A50001446D3F8E43003F04053B3F1005F16D0AE
:104A600008D87BB1B3F1805FE1D1FEF7AFFFB0FBB7
:104A7000F4F0DDE7B3F1405FD9D1FFF737F8B0FBD1
:104A8000F4F0D5E7FEF75AFFB0FBF4F0D0E7FEF7FD
:104A9000E5FFB0FBF4F0CBE7204BD3F8400210F475
:104AA0000050C5D0D3F8F800C0F30740421C1446AC
:104AB000D3F8F83003F04053B3F1005F16D008D8B4
:104AC0007BB1B3F1805FB2D1FEF780FFB0FBF4F0B1
:104AD000AEE7B3F1405FAAD1FFF708F8B0FBF4F0FE
:104AE000A6E7FEF72BFFB0FBF4F0A1E7FEF7B6FF59
:104AF000B0FBF4F09CE7094B586810F0080097D021
:104B00009B6CC3F3C1130648D84091E7034B586828
:104B100010F004008CD003488AE700BF00800256E2
:104B20000090D00300093D0010B52B4BD3F8503155
:104B300003F04073B3F1007F1FD007D8B3B1B3F1D6
:104B4000807F11D10720FFF74FF80EE0B3F1407FCF
:104B50000AD1214B586810F0080006D09B6CC3F3B3
:104B6000C1131E48D84000E0002010BDFDF77AF8C0
:104B7000FDF7BEF8FDF7DCF8F7E7174BD3F8400276
:104B800010F40040F1D0D3F80001C0F30740421CFC
:104B90001446D3F8003103F04053B3F1005F16D050
:104BA00008D87BB1B3F1805FDED1FEF70FFFB0FB19
:104BB000F4F0DAE7B3F1405FD6D1FEF797FFB0FB30
:104BC000F4F0D2E7FEF7BAFEB0FBF4F0CDE7FEF763
:104BD00045FFB0FBF4F0C8E7008002560090D00318
:104BE000534BD3F8543103F4E023B3F5802F00F096
:104BF0008C8010B52DD8B3F5003F45D008D8002BD8
:104C00003DD0B3F5803F38D10720FEF7EDFF35E00A
:104C1000B3F5403F31D1464BD3F8400210F080004D
:104C20002CD0D3F8E000C0F30740421C1446D3F860
:104C3000E03003F04053B3F1005F61D053D8002B54
:104C400059D0B3F1805F18D1FEF7C0FEB0FBF4F08D
:104C500014E0B3F5C02F66D0B3F5E02F5BD0B3F509
:104C6000A02F0AD1324B586810F0080006D09B6C78
:104C7000C3F3C1132F48D84000E0002010BDFCF75B
:104C8000F1FFFDF735F8F9E7294BD3F8400210F0B2
:104C90004000F3D0D3F8DC00C0F30740421C1446B8
:104CA000D3F8DC3003F04053B3F1005F16D008D8DE
:104CB0007BB1B3F1805FE0D1FEF788FEB0FBF4F08A
:104CC000DCE7B3F1405FD8D1FEF710FFB0FBF4F0A2
:104CD000D4E7FEF733FEB0FBF4F0CFE7FEF7BEFEFD
:104CE000B0FBF4F0CAE7B3F1405FC6D1FEF7FEFEB9
:104CF000B0FBF4F0C2E7FEF721FEB0FBF4F0BDE735
:104D0000FEF7ACFEB0FBF4F0B8E7094B586810F0C2
:104D100004000AD17047FCF7A5FF054B5B6AC3F39B
:104D20000163D840AAE70448A8E70448704700BFD9
:104D3000008002560090D0030080BB0000093D00B7
:104D400010B5294BD3F85C3103F03003202B1BD076
:104D500006D8A3B1102B10D10720FEF745FF0DE0B8
:104D6000302B0AD1204B586810F0080006D09B6CFD
:104D7000C3F3C1131D48D84000E0002010BDFCF76C
:104D800071FFFCF7B5FFF9E7174BD3F8400210F4B9
:104D90000020F3D0D3F81001C0F30740421C1446A2
:104DA000D3F8103103F04053B3F1005F16D008D8A8
:104DB0007BB1B3F1805FE0D1FEF708FEB0FBF4F009
:104DC000DCE7B3F1405FD8D1FEF790FEB0FBF4F022
:104DD000D4E7FEF7B3FDB0FBF4F0CFE7FEF73EFEFD
:104DE000B0FBF4F0CAE700BF008002560090D00389
:104DF00010B5FCF76FFF444B984226D018D8A3F5A6
:104E00008033984210D00CD8A3F58033984203D059
:104E100003F58063984216D1FCF724FFFCF768FF86
:104E200012E03A4B98420ED10720FEF7DDFE0BE070
:104E3000374B984238D003F58063984234D0A3F5BD
:104E40008033984201D0002010BD324BD3F840028D
:104E500010F00800F8D0D3F8D000C0F30740421C8F
:104E60001446D3F8D03003F04053B3F1005F16D0AE
:104E700008D87BB1B3F1805FE5D1FEF7A7FDB0FBA9
:104E8000F4F0E1E7B3F1405FDDD1FEF72FFEB0FBB8
:104E9000F4F0D9E7FEF752FDB0FBF4F0D4E7FEF7EB
:104EA000DDFDB0FBF4F0CFE71A4BD3F8400210F071
:104EB0001000C9D0D3F8D400C0F30740421C1446F8
:104EC000D3F8D43003F04053B3F1005F16D008D8C4
:104ED0007BB1B3F1805FB6D1FEF778FDB0FBF4F0A3
:104EE000B2E7B3F1405FAED1FEF700FEB0FBF4F0E5
:104EF000AAE7FEF723FDB0FBF4F0A5E7FEF7AEFD51
:104F0000B0FBF4F0A0E700BF1C0002031C04010387
:104F10001C0003030080025610B5464BD3F86431E1
:104F200003F00703062B5CD8DFE803F0040B0F3E09
:104F30007A6F8100FCF796FEFCF7DAFEFCF7E0FEE4
:104F400010BD0720FEF750FEFAE73A4BD3F84002B7
:104F500010F04000F4D0D3F8DC00C0F30740421C4E
:104F60001446D3F8DC3003F04053B3F1005F16D0A1
:104F700008D87BB1B3F1805F33D1FEF727FDB0FBDA
:104F8000F4F0DDE7B3F1405F2BD1FEF7AFFDB0FBEE
:104F9000F4F0D5E7FEF7D2FCB0FBF4F0D0E7FEF773
:104FA0005DFDB0FBF4F0CBE7224BD3F8400210F0EC
:104FB0008000C5D0D3F8E000C0F30740421C14467F
:104FC000D3F8E03003F04053B3F1005F18D00AD8B3
:104FD0008BB1B3F1805F04D1FEF7F8FCB0FBF4F0C5
:104FE000AEE70020ACE7B3F1405FFAD1FEF77EFDFB
:104FF000B0FBF4F0A4E7FEF7A1FCB0FBF4F09FE7F0
:10500000FEF72CFDB0FBF4F09AE70A4B586810F05D
:10501000080095D09B6CC3F3C1130748D8408FE7B5
:10502000044B586810F004008AD0044888E704480C
:1050300086E700BF008002560090D00300093D00C3
:105040000080BB0010B5FCF745FE634B984265D06D
:1050500047D8A3F50033984226D01AD8A3F5803359
:10506000984212D00ED8A3F58033984203D003F5AE
:105070008063984261D1FCF7F5FDFCF739FEFCF73F
:1050800047FE10BD554B984257D10720FEF7ACFDA7
:10509000F7E7534B98425CD003F58063984258D0B1
:1050A000A3F58033984248D14E4BD3F8400210F01C
:1050B0004000E6D0D3F8DC00C0F30740421C1446A1
:1050C000D3F8DC3003F04053B3F1005F3CD02CD870
:1050D000ABB3B3F1805F30D1FEF778FCB0FBF4F0F6
:1050E000CFE7414B984273D00CD9404B98426BD0DC
:1050F00003F58063984267D0A3F58033984269D165
:105100003B48BEE7A3F58033984251D003F5806356
:1051100098424DD0A3F5803398420ED1314B586858
:1051200010F00400ADD03348ABE7B3F1405F04D1D9
:10513000FEF7DCFCB0FBF4F0A3E70020A1E7FEF7EC
:10514000FDFBB0FBF4F09CE7FEF788FCB0FBF4F04D
:1051500097E7244BD3F8400210F0800091D0D3F8A9
:10516000E000C0F30740421C1446D3F8E03003F0DF
:105170004053B3F1005F16D008D87BB1B3F1805F24
:10518000DBD1FEF723FCB0FBF4F07AE7B3F1405F2C
:10519000D3D1FEF7ABFCB0FBF4F072E7FEF7CEFB29
:1051A000B0FBF4F06DE7FEF759FCB0FBF4F068E7F4
:1051B0000C4B586810F008003FF463AF9B6CC3F3CE
:1051C000C1130D48D8405CE70720FFF7A5FE58E75C
:1051D000074856E7002054E7181404071818010779
:1051E000181403070080025618140607181407073E
:1051F0000080BB0000093D000090D00310B5FCF713
:1052000069FDA54B98427FD000F2A780A3F53C33FF
:10521000984200F0678118D9A04B98424ED045D8EB
:10522000A3F5784398420CD033D99D4B984208D0CF
:1052300003F56C43984241D0A3F57043984240F087
:10524000D4800720FEF7D0FCD0E0A3F5406398425D
:1052500009D00FD8A3F50063984213D003F58063FB
:10526000984240F0C280FCF7FDFCFCF741FDFCF7E2
:1052700047FDBBE08B4B984204D003F58063984216
:1052800040F0B380FCF7EEFCFCF732FDFCF740FD8C
:10529000ACE0A3F500639842D3D003F58063984255
:1052A000CFD0A3F500639842CBD09EE07E4B9842CE
:1052B0002AD04AD8A3F50063984221D17B4BD3F87A
:1052C000400210F0800000F09180D3F8E000C0F3BD
:1052D0000740421C1446D3F8E03003F04053B3F1CA
:1052E000005F00F0148100F20481002B00F00A81BD
:1052F000B3F1805F79D1FEF769FBB0FBF4F075E0A4
:1053000003F58063984270D1684BD3F8400210F4E3
:1053100080706BD0D3F8E400C0F30740421C144601
:10532000D3F8E43003F04053B3F1005F00F00281A2
:1053300000F2F280002B00F0F880B3F1805F54D1CE
:10534000FEF744FBB0FBF4F050E0594B9842B5D067
:1053500003F56C439842D7D047E0564B98427FD034
:105360005BD8A3F5FA339842CED011D9524B98426C
:1053700040D046D8A3F5006398423BD037D8A3F578
:105380000063984236D003F58063984232D02CE017
:10539000A3F50063984203D003F58063984220D1BF
:1053A000424BD3F8400210F400501FD0D3F8F8005D
:1053B000C0F30740421C1446D3F8F83003F04053C2
:1053C000B3F1005F00F0C98000F2B980002B00F05B
:1053D000BF80B3F1805F08D1FEF7F8FAB0FBF4F0BC
:1053E00004E0A3F5006398428ED0002010BD334B3B
:1053F0009842FAD12D4B586810F00400F6D030488E
:10540000F4E7304B98422BD003F58063984227D0C5
:10541000A3F570439842EDD0E7E72B4B98422DD08F
:1054200029D8A3F5406398420CD0284B98420BD959
:10543000274B984206D003F58063984240F0928053
:105440002448D3E72348D1E7A3F57043984207D017
:1054500003F58063984203D0A3F500639842C4D15A
:10546000124B586810F00800C0D09B6CC3F3C113F6
:105470001948D840BAE7194B984206D10B4B5868E7
:1054800010F01000B2D01648B0E703F580639842E0
:105490006AD11048AAE700BF2008030720080207C6
:1054A0002018010720100007201402070080025670
:1054B00020180207200C05072014040720100407F9
:1054C00000093D00200405072010060720040607F8
:1054D000200806070080BB000090D00320140607B8
:1054E00000366E01FCF7BEFBFCF702FCFCF718FC73
:1054F0007CE7B3F1405F7FF478AFFEF7F7FAB0FBDB
:10550000F4F073E7FEF71AFAB0FBF4F06EE7FEF77B
:10551000A5FAB0FBF4F069E7B3F1405F7FF465AF43
:10552000FEF7E4FAB0FBF4F060E7FEF707FAB0FB31
:10553000F4F05BE7FEF792FAB0FBF4F056E7B3F154
:10554000405F7FF452AFFEF7D1FAB0FBF4F04DE7C5
:10555000FEF7F4F9B0FBF4F048E7FEF77FFAB0FB92
:10556000F4F043E7002041E700203FE710B5FCF7E7
:10557000B1FB984B984252D03CD9974B984200F0DF
:10558000F28000F2C380A3F58033984200F0B2802D
:1055900000F2A480A3F57043043B984209D000F2C6
:1055A0009380A3F6FC73984203D003F6FC33984231
:1055B0007DD18A4BD3F8400210F4005078D0D3F854
:1055C000F800C0F30740421C1446D3F8F83003F04B
:1055D0004053B3F1005F00F0F88000F2E880002B48
:1055E00000F0EE80B3F1805F61D1FEF7EFF9B0FB20
:1055F000F4F05DE0A3F50033984244D030D9784B05
:10560000984259D046D9774B984208D058D8A3F63B
:10561000FC73984203D003F6FC33984247D16F4B9A
:10562000D3F8400210F4807042D0D3F8E400C0F305
:105630000740421C1446D3F8E43003F04053B3F162
:10564000005F00F0AF8000F2A080002B00F0A5808A
:10565000B3F1805F2BD1FEF7B9F9B0FBF4F027E08E
:10566000614B984200F08A80013B98421FD903F6B3
:10567000FD73984207D003F50063984203D0A3F569
:105680004063984213D1FCF7EDFAFCF731FBFCF7CD
:1056900037FB0DE0A3F5406398420DD009D8A3F67F
:1056A000FC73984208D003F6FC33984204D00020E3
:1056B00010BD4E4B9842FAD10720FEF795FAF7E756
:1056C0004B4B9842ABD0F2E74A4B98423FF471AF54
:1056D00003F5806398423FF46CAFE8E7464B98428D
:1056E00008D00FD8A3F54063984203D003F5806338
:1056F0009842DCD1394B586810F00200D8D04FF4F2
:105700000040D5E73D4B9842F4D0D0E73C4B98425F
:105710000CD016D93B4B984208D02BD8A3F5406348
:10572000984203D003F580639842C0D12B4B586850
:1057300010F00800BCD09B6CC3F3C1133248D840B2
:10574000B6E7A3F56843043B98420CD008D8A3F50C
:105750004063984207D003F58063984203D0A6E7E0
:105760002A4B9842A3D11D4B586810F004009FD0DB
:1057700027489DE7274B9842D8D098E7FCF772FA64
:10578000FCF7B6FAFCF7C4FA92E7B3F1405F8ED1AA
:10579000FEF7ACF9B0FBF4F08AE7FEF7CFF8B0FB08
:1057A000F4F085E7FEF75AF9B0FBF4F080E7B3F1C7
:1057B000405F7FF47CAFFEF799F9B0FBF4F077E738
:1057C000FEF7BCF8B0FBF4F072E7FEF747F9B0FB68
:1057D000F4F06DE7301C0207340005070080025624
:1057E000301C010730100207340000073018010791
:1057F000301802073018030730180407301C04075C
:1058000034000607301806070090D003301C050747
:1058100000093D00301C060710B5FCF75BFA974BFA
:10582000984200F088803CD9954B984200F0E9807E
:1058300000F2C080A3F58033984200F0AF8000F200
:10584000A280A3F57B43FC3B984209D000F29180F3
:10585000A3F20443984203D003F58063984246D1F3
:10586000884BD3F8400210F4005041D0D3F8F80030
:10587000C0F30740421C1446D3F8F83003F04053FD
:10588000B3F1005F00F0F58000F2E580002B00F03E
:10589000EB80B3F1805F2AD1FEF798F8B0FBF4F00B
:1058A00026E0A3F50033984200F0BB8010D9764B78
:1058B000984235D027D9754B98423CD038D8A3F2BE
:1058C0000443984237D003F58063984233D00EE00A
:1058D000A3F6FC73984200F0A4800AD8A3F2044314
:1058E000984200F09E8003F58063984204D0002027
:1058F00010BD674B9842FAD1FCF7B4F9FCF7F8F900
:10590000FCF7FEF9F4E7A3F6FC73984208D00BD835
:10591000A3F20443984203D003F580639842E6D192
:105920000720FEF761F9E3E75A4B9842F8D0DEE72B
:10593000594B9842DBD1534BD3F8400210F480709E
:10594000D6D0D3F8E400C0F30740421C1446D3F885
:10595000E43003F04053B3F1005F77D068D8002BF8
:105960006FD0B3F1805FC2D1FEF730F8B0FBF4F036
:10597000BEE74A4B98423FF473AF03F54063984249
:105980003FF46EAFB3E7464B984207D00ED8A3F56D
:105990008063984202D004339842A8D1394B5868AA
:1059A00010F00200A4D04FF40040A1E73D4B984214
:1059B000F4D09CE73C4B98420BD015D93B4B984216
:1059C00007D02AD8A3F58063984202D004339842C6
:1059D0008DD12C4B586810F0080089D09B6CC3F314
:1059E000C1133348D84083E7A3F57843984208D0E1
:1059F0000FD8A3F58063984203D0043398427FF414
:105A000076AF204B586810F004003FF471AF29487E
:105A10006EE7294B9842F4D069E7284B9842D8D0DA
:105A200065E7FCF71FF9FCF763F9FCF771F95FE72D
:105A3000B3F1405F7FF45BAFFEF758F8B0FBF4F0D2
:105A400056E7FDF77BFFB0FBF4F051E7FEF706F8F1
:105A5000B0FBF4F04CE7B3F1405F7FF448AFFEF7E2
:105A600045F8B0FBF4F043E7FDF768FFB0FBF4F056
:105A70003EE7FDF7F3FFB0FBF4F039E7301402071F
:105A80003000050700800256301401073404020775
:105A90003008000730080107300802073008030704
:105AA00030080407301404073000060730080607E2
:105AB0000090D00300093D0030140507301406079C
:105AC00010B5FCF707F9344B984233D01AD8A3F538
:105AD0008033984212D00ED8A3F58033984203D079
:105AE00003F50063984218D12C4B586810F0100051
:105AF00014D02B4812E02B4B98420ED10720FEF712
:105B000073F80BE0284B984209D003F500639842E4
:105B100005D0A3F5803398420CD0002010BD1F4B58
:105B2000586810F01000F9D05B6D13F0400F30D1C1
:105B30001E48F3E7194BD3F8400210F48040EDD033
:105B4000D3F8FC00C0F30740421C1446D3F8FC30E5
:105B500003F04053B3F1005F16D008D87BB1B3F126
:105B6000805FDAD1FDF732FFB0FBF4F0D6E7B3F196
:105B7000405FD2D1FDF7BAFFB0FBF4F0CEE7FDF7FE
:105B8000DDFEB0FBF4F0C9E7FDF768FFB0FBF4F011
:105B9000C4E70348C2E700BF140C020300800256AA
:105BA000001BB70014140103140C030300366E012C
:105BB00008B5FCF78FF8134B98421CD007D8A3F513
:105BC000006398420AD11048FFF77AFF07E00F4BB5
:105BD000984205D003F50063984201D0002008BD2B
:105BE0000B4B586810F01000F9D05B6D13F0400FAC
:105BF00005D10848F3E70848FFF762FFEFE70748D9
:105C0000EDE700BF14180001140C0003141001018B
:105C10000080025600366E0114140003001BB7000A
:105C200010B5FCF757F84C4B984252D020D8A3F54A
:105C30008033984218D010D8A3F57C43984207D0FF
:105C400003F58063984203D0A3F5006398425DD1C9
:105C5000FCF708F8FCF74CF859E0404B984203D0A9
:105C600003F58063984251D10720FDF7BDFF4EE058
:105C70003B4B984207D024D93A4B984203D003F5C6
:105C80008063984242D1384BD3F8400210F00800AC
:105C90003DD0D3F8D000C0F30740421C1446D3F8DF
:105CA000D03003F04053B3F1005F50D042D8002B06
:105CB00048D0B3F1805F29D1FDF788FEB0FBF4F046
:105CC00025E0A3F57C43984203D003F58063984216
:105CD0001CD1254BD3F8400210F0040017D0D3F8A4
:105CE000CC00C0F30740421C1446D3F8CC3003F07C
:105CF0004053B3F1005F18D00AD88BB1B3F1805F85
:105D000004D1FDF763FEB0FBF4F000E0002010BD0D
:105D1000B3F1405FFAD1FDF7E9FEB0FBF4F0F6E72E
:105D2000FDF70CFEB0FBF4F0F1E7FDF797FEB0FBDA
:105D3000F4F0ECE7B3F1405FE8D1FDF7D7FEB0FB3C
:105D4000F4F0E4E7FDF7FAFDB0FBF4F0DFE7FDF770
:105D500085FEB0FBF4F0DAE714000203140401033B
:105D600014000303140403030080025608B500F175
:105D700060430B4300F04282CC4B984271F1000328
:105D800038D3B1F5805F08BF002800F05F820023A0
:105D900083424FF480538B41C0F05981102908BFD2
:105DA000002800F03F82002383424FF010038B4114
:105DB00080F01081B1F5007F08BF002800F03E821E
:105DC000002383424FF400738B41C0F0308140299F
:105DD00008BF002800F02A82B1F5807F08BF0028A4
:105DE00000F02882202908BF002844D1B048FFF7DE
:105DF00005FA41E0A0F580330B4300F0DA81B0F101
:105E0000011F71F1000380F08A80A0F500730B433D
:105E100000F0BB8140F20123984271F100031CD3D2
:105E2000A0F500530B4300F0BC8142F201039842FD
:105E300071F1000366D2A0F500630B4300F0A98165
:105E4000A0F580530B4300F0A881A0F580600843C3
:105E500011D10320FEF74AFA0EE0212871F1000368
:105E600009D250EA010306D0013841F1FF31202860
:105E700071F1000101D3002008BD1F28FBD801A348
:105E800053F820F05961003461610034775E0034CA
:105E90006F610034775E0034775E0034775E0034E3
:105EA00069610034775E0034775E0034775E0034D9
:105EB000775E0034775E0034775E0034775E0034BE
:105EC00077610034775E0034775E0034775E0034AB
:105ED000775E0034775E0034775E0034775E00349E
:105EE000775E0034775E0034775E0034775E00348E
:105EF000775E0034775E0034775E0034775E00347E
:105F000081610034A0F580430B4300F04E81A0F581
:105F100000400843AFD16748FEF7B6FAACE7A0F5FA
:105F200000030B4300F05981634B984271F1000369
:105F300029D2A0F580130B4300F047815F4B9842B4
:105F400071F1000311D2A0F580230B4300F03581DD
:105F5000A0F500230B4300F03481A0F50030084386
:105F600089D15748FEF788FB86E7A0F500130B435D
:105F700000F02F81A0F5800008437FF47CAF5148EA
:105F8000FEF738FC78E700F17C430B4300F02F81EB
:105F90004D4B984271F100030ED200F17F430B4349
:105FA00000F0208100F17E4008437FF464AF4FF49D
:105FB000E020FEF715FE5FE700F178430B4300F0A9
:105FC0001A8100F1704008437FF455AF3F48FFF756
:105FD00039F851E7022908BF002800F01B8100238F
:105FE00083424FF002038B4113D3002908BFB0F165
:105FF000004F00F00781012908BF002800F006814A
:1060000000F1404008437FF436AF3148FEF7F0FE20
:1060100032E7042908BF002800F00081082908BFE2
:1060200000287FF428AF2B48FFF7E8F824E7B1F504
:10603000806F08BF002800F00581B1F5006F08BF30
:1060400000287FF418AF2448FFF790FA14E7B1F561
:10605000002F08BF002800F00D81002383424FF479
:1060600000238B414CD3B1F5803F08BF002800F0DE
:10607000F980002383424FF480338B4130D3B1F554
:10608000804F08BF002800F0E580B1F5004F08BF41
:10609000002800F0E380B1F5005F08BF00287FF41E
:1060A000EAAE0E48FFF7B8FBE6E600BF01000020AD
:1060B000201400070C0C00070100800001001000F4
:1060C0000C1400072C180007010000041814000726
